{
  "_format": "hh-sol-artifact-1",
  "contractName": "NFTMarketplace",
  "sourceName": "contracts/NFTMarketplace.sol",
  "abi": [
    {
      "inputs": [],
      "stateMutability": "nonpayable",
      "type": "constructor"
    },
    {
      "anonymous": false,
      "inputs": [
        {
          "indexed": true,
          "internalType": "address",
          "name": "owner",
          "type": "address"
        },
        {
          "indexed": true,
          "internalType": "address",
          "name": "approved",
          "type": "address"
        },
        {
          "indexed": true,
          "internalType": "uint256",
          "name": "tokenId",
          "type": "uint256"
        }
      ],
      "name": "Approval",
      "type": "event"
    },
    {
      "anonymous": false,
      "inputs": [
        {
          "indexed": true,
          "internalType": "address",
          "name": "owner",
          "type": "address"
        },
        {
          "indexed": true,
          "internalType": "address",
          "name": "operator",
          "type": "address"
        },
        {
          "indexed": false,
          "internalType": "bool",
          "name": "approved",
          "type": "bool"
        }
      ],
      "name": "ApprovalForAll",
      "type": "event"
    },
    {
      "anonymous": false,
      "inputs": [
        {
          "indexed": false,
          "internalType": "uint256",
          "name": "_fromTokenId",
          "type": "uint256"
        },
        {
          "indexed": false,
          "internalType": "uint256",
          "name": "_toTokenId",
          "type": "uint256"
        }
      ],
      "name": "BatchMetadataUpdate",
      "type": "event"
    },
    {
      "anonymous": false,
      "inputs": [
        {
          "indexed": false,
          "internalType": "string",
          "name": "name",
          "type": "string"
        },
        {
          "indexed": false,
          "internalType": "string",
          "name": "message",
          "type": "string"
        },
        {
          "indexed": false,
          "internalType": "uint256",
          "name": "timestamp",
          "type": "uint256"
        },
        {
          "indexed": false,
          "internalType": "address",
          "name": "buyer",
          "type": "address"
        },
        {
          "indexed": false,
          "internalType": "uint256",
          "name": "amount",
          "type": "uint256"
        }
      ],
      "name": "ChaiBought",
      "type": "event"
    },
    {
      "anonymous": false,
      "inputs": [
        {
          "indexed": true,
          "internalType": "address",
          "name": "from",
          "type": "address"
        },
        {
          "indexed": false,
          "internalType": "string",
          "name": "name",
          "type": "string"
        },
        {
          "indexed": false,
          "internalType": "string",
          "name": "message",
          "type": "string"
        },
        {
          "indexed": false,
          "internalType": "uint256",
          "name": "timestamp",
          "type": "uint256"
        },
        {
          "indexed": false,
          "internalType": "uint256",
          "name": "amount",
          "type": "uint256"
        }
      ],
      "name": "Donation",
      "type": "event"
    },
    {
      "anonymous": false,
      "inputs": [
        {
          "indexed": false,
          "internalType": "uint256",
          "name": "newPrice",
          "type": "uint256"
        }
      ],
      "name": "ListingPriceUpdated",
      "type": "event"
    },
    {
      "anonymous": false,
      "inputs": [
        {
          "indexed": true,
          "internalType": "uint256",
          "name": "tokenId",
          "type": "uint256"
        },
        {
          "indexed": false,
          "internalType": "address",
          "name": "seller",
          "type": "address"
        },
        {
          "indexed": false,
          "internalType": "address",
          "name": "owner",
          "type": "address"
        },
        {
          "indexed": false,
          "internalType": "uint256",
          "name": "price",
          "type": "uint256"
        },
        {
          "indexed": false,
          "internalType": "bool",
          "name": "sold",
          "type": "bool"
        }
      ],
      "name": "MarketItemCreated",
      "type": "event"
    },
    {
      "anonymous": false,
      "inputs": [
        {
          "indexed": true,
          "internalType": "uint256",
          "name": "tokenId",
          "type": "uint256"
        },
        {
          "indexed": false,
          "internalType": "address",
          "name": "buyer",
          "type": "address"
        },
        {
          "indexed": false,
          "internalType": "address",
          "name": "seller",
          "type": "address"
        },
        {
          "indexed": false,
          "internalType": "uint256",
          "name": "price",
          "type": "uint256"
        }
      ],
      "name": "MarketSale",
      "type": "event"
    },
    {
      "anonymous": false,
      "inputs": [
        {
          "indexed": false,
          "internalType": "uint256",
          "name": "_tokenId",
          "type": "uint256"
        }
      ],
      "name": "MetadataUpdate",
      "type": "event"
    },
    {
      "anonymous": false,
      "inputs": [
        {
          "indexed": true,
          "internalType": "uint256",
          "name": "tokenId",
          "type": "uint256"
        },
        {
          "indexed": false,
          "internalType": "address",
          "name": "seller",
          "type": "address"
        },
        {
          "indexed": false,
          "internalType": "address",
          "name": "owner",
          "type": "address"
        },
        {
          "indexed": false,
          "internalType": "uint256",
          "name": "price",
          "type": "uint256"
        }
      ],
      "name": "TokenResold",
      "type": "event"
    },
    {
      "anonymous": false,
      "inputs": [
        {
          "indexed": true,
          "internalType": "address",
          "name": "from",
          "type": "address"
        },
        {
          "indexed": true,
          "internalType": "address",
          "name": "to",
          "type": "address"
        },
        {
          "indexed": true,
          "internalType": "uint256",
          "name": "tokenId",
          "type": "uint256"
        }
      ],
      "name": "Transfer",
      "type": "event"
    },
    {
      "inputs": [],
      "name": "Rowner",
      "outputs": [
        {
          "internalType": "address payable",
          "name": "",
          "type": "address"
        }
      ],
      "stateMutability": "view",
      "type": "function"
    },
    {
      "inputs": [
        {
          "internalType": "address",
          "name": "to",
          "type": "address"
        },
        {
          "internalType": "uint256",
          "name": "tokenId",
          "type": "uint256"
        }
      ],
      "name": "approve",
      "outputs": [],
      "stateMutability": "nonpayable",
      "type": "function"
    },
    {
      "inputs": [
        {
          "internalType": "address",
          "name": "owner",
          "type": "address"
        }
      ],
      "name": "balanceOf",
      "outputs": [
        {
          "internalType": "uint256",
          "name": "",
          "type": "uint256"
        }
      ],
      "stateMutability": "view",
      "type": "function"
    },
    {
      "inputs": [
        {
          "internalType": "string",
          "name": "name",
          "type": "string"
        },
        {
          "internalType": "string",
          "name": "message",
          "type": "string"
        },
        {
          "internalType": "string",
          "name": "cid",
          "type": "string"
        }
      ],
      "name": "buyChai",
      "outputs": [],
      "stateMutability": "payable",
      "type": "function"
    },
    {
      "inputs": [
        {
          "internalType": "uint256",
          "name": "tokenId",
          "type": "uint256"
        }
      ],
      "name": "createMarketSale",
      "outputs": [],
      "stateMutability": "payable",
      "type": "function"
    },
    {
      "inputs": [
        {
          "internalType": "string",
          "name": "tokenURI",
          "type": "string"
        },
        {
          "internalType": "uint256",
          "name": "price",
          "type": "uint256"
        }
      ],
      "name": "createToken",
      "outputs": [
        {
          "internalType": "uint256",
          "name": "",
          "type": "uint256"
        }
      ],
      "stateMutability": "payable",
      "type": "function"
    },
    {
      "inputs": [],
      "name": "fetchItemsListed",
      "outputs": [
        {
          "components": [
            {
              "internalType": "uint256",
              "name": "tokenId",
              "type": "uint256"
            },
            {
              "internalType": "address payable",
              "name": "seller",
              "type": "address"
            },
            {
              "internalType": "address payable",
              "name": "owner",
              "type": "address"
            },
            {
              "internalType": "uint256",
              "name": "price",
              "type": "uint256"
            },
            {
              "internalType": "bool",
              "name": "sold",
              "type": "bool"
            }
          ],
          "internalType": "struct NFTMarketplace.MarketItem[]",
          "name": "",
          "type": "tuple[]"
        }
      ],
      "stateMutability": "view",
      "type": "function"
    },
    {
      "inputs": [],
      "name": "fetchMarketItems",
      "outputs": [
        {
          "components": [
            {
              "internalType": "uint256",
              "name": "tokenId",
              "type": "uint256"
            },
            {
              "internalType": "address payable",
              "name": "seller",
              "type": "address"
            },
            {
              "internalType": "address payable",
              "name": "owner",
              "type": "address"
            },
            {
              "internalType": "uint256",
              "name": "price",
              "type": "uint256"
            },
            {
              "internalType": "bool",
              "name": "sold",
              "type": "bool"
            }
          ],
          "internalType": "struct NFTMarketplace.MarketItem[]",
          "name": "",
          "type": "tuple[]"
        }
      ],
      "stateMutability": "view",
      "type": "function"
    },
    {
      "inputs": [],
      "name": "fetchMyNFTs",
      "outputs": [
        {
          "components": [
            {
              "internalType": "uint256",
              "name": "tokenId",
              "type": "uint256"
            },
            {
              "internalType": "address payable",
              "name": "seller",
              "type": "address"
            },
            {
              "internalType": "address payable",
              "name": "owner",
              "type": "address"
            },
            {
              "internalType": "uint256",
              "name": "price",
              "type": "uint256"
            },
            {
              "internalType": "bool",
              "name": "sold",
              "type": "bool"
            }
          ],
          "internalType": "struct NFTMarketplace.MarketItem[]",
          "name": "",
          "type": "tuple[]"
        }
      ],
      "stateMutability": "view",
      "type": "function"
    },
    {
      "inputs": [
        {
          "internalType": "uint256",
          "name": "tokenId",
          "type": "uint256"
        }
      ],
      "name": "getApproved",
      "outputs": [
        {
          "internalType": "address",
          "name": "",
          "type": "address"
        }
      ],
      "stateMutability": "view",
      "type": "function"
    },
    {
      "inputs": [],
      "name": "getBalance",
      "outputs": [
        {
          "internalType": "uint256",
          "name": "",
          "type": "uint256"
        }
      ],
      "stateMutability": "view",
      "type": "function"
    },
    {
      "inputs": [],
      "name": "getListingPrice",
      "outputs": [
        {
          "internalType": "uint256",
          "name": "",
          "type": "uint256"
        }
      ],
      "stateMutability": "view",
      "type": "function"
    },
    {
      "inputs": [],
      "name": "getMemos",
      "outputs": [
        {
          "components": [
            {
              "internalType": "string",
              "name": "name",
              "type": "string"
            },
            {
              "internalType": "string",
              "name": "message",
              "type": "string"
            },
            {
              "internalType": "string",
              "name": "cid",
              "type": "string"
            },
            {
              "internalType": "uint256",
              "name": "timestamp",
              "type": "uint256"
            },
            {
              "internalType": "address",
              "name": "from",
              "type": "address"
            }
          ],
          "internalType": "struct NFTMarketplace.Memo[]",
          "name": "",
          "type": "tuple[]"
        }
      ],
      "stateMutability": "view",
      "type": "function"
    },
    {
      "inputs": [
        {
          "internalType": "address",
          "name": "owner",
          "type": "address"
        },
        {
          "internalType": "address",
          "name": "operator",
          "type": "address"
        }
      ],
      "name": "isApprovedForAll",
      "outputs": [
        {
          "internalType": "bool",
          "name": "",
          "type": "bool"
        }
      ],
      "stateMutability": "view",
      "type": "function"
    },
    {
      "inputs": [],
      "name": "name",
      "outputs": [
        {
          "internalType": "string",
          "name": "",
          "type": "string"
        }
      ],
      "stateMutability": "view",
      "type": "function"
    },
    {
      "inputs": [
        {
          "internalType": "uint256",
          "name": "tokenId",
          "type": "uint256"
        }
      ],
      "name": "ownerOf",
      "outputs": [
        {
          "internalType": "address",
          "name": "",
          "type": "address"
        }
      ],
      "stateMutability": "view",
      "type": "function"
    },
    {
      "inputs": [
        {
          "internalType": "uint256",
          "name": "tokenId",
          "type": "uint256"
        },
        {
          "internalType": "uint256",
          "name": "price",
          "type": "uint256"
        }
      ],
      "name": "resellToken",
      "outputs": [],
      "stateMutability": "payable",
      "type": "function"
    },
    {
      "inputs": [
        {
          "internalType": "address",
          "name": "from",
          "type": "address"
        },
        {
          "internalType": "address",
          "name": "to",
          "type": "address"
        },
        {
          "internalType": "uint256",
          "name": "tokenId",
          "type": "uint256"
        }
      ],
      "name": "safeTransferFrom",
      "outputs": [],
      "stateMutability": "nonpayable",
      "type": "function"
    },
    {
      "inputs": [
        {
          "internalType": "address",
          "name": "from",
          "type": "address"
        },
        {
          "internalType": "address",
          "name": "to",
          "type": "address"
        },
        {
          "internalType": "uint256",
          "name": "tokenId",
          "type": "uint256"
        },
        {
          "internalType": "bytes",
          "name": "data",
          "type": "bytes"
        }
      ],
      "name": "safeTransferFrom",
      "outputs": [],
      "stateMutability": "nonpayable",
      "type": "function"
    },
    {
      "inputs": [
        {
          "internalType": "address",
          "name": "operator",
          "type": "address"
        },
        {
          "internalType": "bool",
          "name": "approved",
          "type": "bool"
        }
      ],
      "name": "setApprovalForAll",
      "outputs": [],
      "stateMutability": "nonpayable",
      "type": "function"
    },
    {
      "inputs": [
        {
          "internalType": "bytes4",
          "name": "interfaceId",
          "type": "bytes4"
        }
      ],
      "name": "supportsInterface",
      "outputs": [
        {
          "internalType": "bool",
          "name": "",
          "type": "bool"
        }
      ],
      "stateMutability": "view",
      "type": "function"
    },
    {
      "inputs": [],
      "name": "symbol",
      "outputs": [
        {
          "internalType": "string",
          "name": "",
          "type": "string"
        }
      ],
      "stateMutability": "view",
      "type": "function"
    },
    {
      "inputs": [
        {
          "internalType": "uint256",
          "name": "tokenId",
          "type": "uint256"
        }
      ],
      "name": "tokenURI",
      "outputs": [
        {
          "internalType": "string",
          "name": "",
          "type": "string"
        }
      ],
      "stateMutability": "view",
      "type": "function"
    },
    {
      "inputs": [
        {
          "internalType": "address",
          "name": "from",
          "type": "address"
        },
        {
          "internalType": "address",
          "name": "to",
          "type": "address"
        },
        {
          "internalType": "uint256",
          "name": "tokenId",
          "type": "uint256"
        }
      ],
      "name": "transferFrom",
      "outputs": [],
      "stateMutability": "nonpayable",
      "type": "function"
    },
    {
      "inputs": [
        {
          "internalType": "uint256",
          "name": "_listingPrice",
          "type": "uint256"
        }
      ],
      "name": "updateListingPrice",
      "outputs": [],
      "stateMutability": "payable",
      "type": "function"
    }
  ],
  "bytecode": "0x60806040526658d15e17628000600a553480156200001c57600080fd5b506040518060400160405280601081526020017f4d657461766572736520546f6b656e73000000000000000000000000000000008152506040518060400160405280600481526020017f4d455454000000000000000000000000000000000000000000000000000000008152508160009080519060200190620000a192919062000145565b508060019080519060200190620000ba92919062000145565b50505033600e60006101000a81548173ffffffffffffffffffffffffffffffffffffffff021916908373ffffffffffffffffffffffffffffffffffffffff16021790555033600b60006101000a81548173ffffffffffffffffffffffffffffffffffffffff021916908373ffffffffffffffffffffffffffffffffffffffff1602179055506200025a565b828054620001539062000224565b90600052602060002090601f016020900481019282620001775760008555620001c3565b82601f106200019257805160ff1916838001178555620001c3565b82800160010185558215620001c3579182015b82811115620001c2578251825591602001919060010190620001a5565b5b509050620001d29190620001d6565b5090565b5b80821115620001f1576000816000905550600101620001d7565b5090565b7f4e487b7100000000000000000000000000000000000000000000000000000000600052602260045260246000fd5b600060028204905060018216806200023d57607f821691505b60208210811415620002545762000253620001f5565b5b50919050565b614ac5806200026a6000396000f3fe6080604052600436106101665760003560e01c806370a08231116100d1578063ae677aa31161008a578063c87b56dd11610064578063c87b56dd14610517578063e219fc7514610554578063e2ede73d14610570578063e985e9c51461058c57610166565b8063ae677aa3146104b6578063b88d4fde146104d2578063be9af536146104fb57610166565b806370a082311461039f57806372b3b620146103dc578063865c51721461040c57806395d89b4114610437578063a0d1804514610462578063a22cb4651461048d57610166565b806312e855851161012357806312e855851461028f578063202e3740146102ba57806323b872dd146102e557806342842e0e1461030e57806345f8fa80146103375780636352211e1461036257610166565b806301ffc9a71461016b57806306fdde03146101a8578063081812fc146101d3578063095ea7b3146102105780630f08efe01461023957806312065fe014610264575b600080fd5b34801561017757600080fd5b50610192600480360381019061018d919061327f565b6105c9565b60405161019f91906132c7565b60405180910390f35b3480156101b457600080fd5b506101bd61062a565b6040516101ca919061337b565b60405180910390f35b3480156101df57600080fd5b506101fa60048036038101906101f591906133d3565b6106bc565b6040516102079190613441565b60405180910390f35b34801561021c57600080fd5b5061023760048036038101906102329190613488565b610702565b005b34801561024557600080fd5b5061024e61081a565b60405161025b919061361e565b60405180910390f35b34801561027057600080fd5b50610279610a83565b604051610286919061364f565b60405180910390f35b34801561029b57600080fd5b506102a4610ac4565b6040516102b1919061364f565b60405180910390f35b3480156102c657600080fd5b506102cf610ace565b6040516102dc919061361e565b60405180910390f35b3480156102f157600080fd5b5061030c6004803603810190610307919061366a565b610dbc565b005b34801561031a57600080fd5b506103356004803603810190610330919061366a565b610e1c565b005b34801561034357600080fd5b5061034c610e3c565b604051610359919061361e565b60405180910390f35b34801561036e57600080fd5b50610389600480360381019061038491906133d3565b61112a565b6040516103969190613441565b60405180910390f35b3480156103ab57600080fd5b506103c660048036038101906103c191906136bd565b6111b1565b6040516103d3919061364f565b60405180910390f35b6103f660048036038101906103f1919061381f565b611269565b604051610403919061364f565b60405180910390f35b34801561041857600080fd5b506104216112ab565b60405161042e9190613a1a565b60405180910390f35b34801561044357600080fd5b5061044c611520565b604051610459919061337b565b60405180910390f35b34801561046e57600080fd5b506104776115b2565b6040516104849190613a4b565b60405180910390f35b34801561049957600080fd5b506104b460048036038101906104af9190613a92565b6115d8565b005b6104d060048036038101906104cb91906133d3565b6115ee565b005b3480156104de57600080fd5b506104f960048036038101906104f49190613b73565b6116c1565b005b610515600480360381019061051091906133d3565b611723565b005b34801561052357600080fd5b5061053e600480360381019061053991906133d3565b61199d565b60405161054b919061337b565b60405180910390f35b61056e60048036038101906105699190613bf6565b611ab0565b005b61058a60048036038101906105859190613c36565b611ce1565b005b34801561059857600080fd5b506105b360048036038101906105ae9190613cdd565b611ea4565b6040516105c091906132c7565b60405180910390f35b6000634906490660e01b7bffffffffffffffffffffffffffffffffffffffffffffffffffffffff1916827bffffffffffffffffffffffffffffffffffffffffffffffffffffffff19161480610623575061062282611f38565b5b9050919050565b60606000805461063990613d4c565b80601f016020809104026020016040519081016040528092919081815260200182805461066590613d4c565b80156106b25780601f10610687576101008083540402835291602001916106b2565b820191906000526020600020905b81548152906001019060200180831161069557829003601f168201915b5050505050905090565b60006106c78261201a565b6004600083815260200190815260200160002060009054906101000a900473ffffffffffffffffffffffffffffffffffffffff169050919050565b600061070d8261112a565b90508073ffffffffffffffffffffffffffffffffffffffff168373ffffffffffffffffffffffffffffffffffffffff16141561077e576040517f08c379a000000000000000000000000000000000000000000000000000000000815260040161077590613df0565b60405180910390fd5b8073ffffffffffffffffffffffffffffffffffffffff1661079d612065565b73ffffffffffffffffffffffffffffffffffffffff1614806107cc57506107cb816107c6612065565b611ea4565b5b61080b576040517f08c379a000000000000000000000000000000000000000000000000000000000815260040161080290613e82565b60405180910390fd5b610815838361206d565b505050565b606060006108286007612126565b905060006108366008612126565b6108406007612126565b61084a9190613ed1565b90506000808267ffffffffffffffff811115610869576108686136f4565b5b6040519080825280602002602001820160405280156108a257816020015b61088f613113565b8152602001906001900390816108875790505b50905060005b84811015610a78573073ffffffffffffffffffffffffffffffffffffffff16600c60006001846108d89190613f05565b815260200190815260200160002060020160009054906101000a900473ffffffffffffffffffffffffffffffffffffffff1673ffffffffffffffffffffffffffffffffffffffff161415610a655760006001826109359190613f05565b90506000600c60008381526020019081526020016000209050806040518060a0016040529081600082015481526020016001820160009054906101000a900473ffffffffffffffffffffffffffffffffffffffff1673ffffffffffffffffffffffffffffffffffffffff1673ffffffffffffffffffffffffffffffffffffffff1681526020016002820160009054906101000a900473ffffffffffffffffffffffffffffffffffffffff1673ffffffffffffffffffffffffffffffffffffffff1673ffffffffffffffffffffffffffffffffffffffff168152602001600382015481526020016004820160009054906101000a900460ff161515151581525050848681518110610a4857610a47613f5b565b5b6020026020010181905250600185610a609190613f05565b945050505b8080610a7090613f8a565b9150506108a8565b508094505050505090565b6000600e60009054906101000a900473ffffffffffffffffffffffffffffffffffffffff1673ffffffffffffffffffffffffffffffffffffffff1631905090565b6000600a54905090565b60606000610adc6007612126565b905060008060005b83811015610b85573373ffffffffffffffffffffffffffffffffffffffff16600c6000600184610b149190613f05565b815260200190815260200160002060020160009054906101000a900473ffffffffffffffffffffffffffffffffffffffff1673ffffffffffffffffffffffffffffffffffffffff161415610b7257600183610b6f9190613f05565b92505b8080610b7d90613f8a565b915050610ae4565b5060008267ffffffffffffffff811115610ba257610ba16136f4565b5b604051908082528060200260200182016040528015610bdb57816020015b610bc8613113565b815260200190600190039081610bc05790505b50905060005b84811015610db1573373ffffffffffffffffffffffffffffffffffffffff16600c6000600184610c119190613f05565b815260200190815260200160002060020160009054906101000a900473ffffffffffffffffffffffffffffffffffffffff1673ffffffffffffffffffffffffffffffffffffffff161415610d9e576000600182610c6e9190613f05565b90506000600c60008381526020019081526020016000209050806040518060a0016040529081600082015481526020016001820160009054906101000a900473ffffffffffffffffffffffffffffffffffffffff1673ffffffffffffffffffffffffffffffffffffffff1673ffffffffffffffffffffffffffffffffffffffff1681526020016002820160009054906101000a900473ffffffffffffffffffffffffffffffffffffffff1673ffffffffffffffffffffffffffffffffffffffff1673ffffffffffffffffffffffffffffffffffffffff168152602001600382015481526020016004820160009054906101000a900460ff161515151581525050848681518110610d8157610d80613f5b565b5b6020026020010181905250600185610d999190613f05565b945050505b8080610da990613f8a565b915050610be1565b508094505050505090565b610dcd610dc7612065565b82612134565b610e0c576040517f08c379a0000000000000000000000000000000000000000000000000000000008152600401610e0390614045565b60405180910390fd5b610e178383836121c9565b505050565b610e37838383604051806020016040528060008152506116c1565b505050565b60606000610e4a6007612126565b905060008060005b83811015610ef3573373ffffffffffffffffffffffffffffffffffffffff16600c6000600184610e829190613f05565b815260200190815260200160002060010160009054906101000a900473ffffffffffffffffffffffffffffffffffffffff1673ffffffffffffffffffffffffffffffffffffffff161415610ee057600183610edd9190613f05565b92505b8080610eeb90613f8a565b915050610e52565b5060008267ffffffffffffffff811115610f1057610f0f6136f4565b5b604051908082528060200260200182016040528015610f4957816020015b610f36613113565b815260200190600190039081610f2e5790505b50905060005b8481101561111f573373ffffffffffffffffffffffffffffffffffffffff16600c6000600184610f7f9190613f05565b815260200190815260200160002060010160009054906101000a900473ffffffffffffffffffffffffffffffffffffffff1673ffffffffffffffffffffffffffffffffffffffff16141561110c576000600182610fdc9190613f05565b90506000600c60008381526020019081526020016000209050806040518060a0016040529081600082015481526020016001820160009054906101000a900473ffffffffffffffffffffffffffffffffffffffff1673ffffffffffffffffffffffffffffffffffffffff1673ffffffffffffffffffffffffffffffffffffffff1681526020016002820160009054906101000a900473ffffffffffffffffffffffffffffffffffffffff1673ffffffffffffffffffffffffffffffffffffffff1673ffffffffffffffffffffffffffffffffffffffff168152602001600382015481526020016004820160009054906101000a900460ff1615151515815250508486815181106110ef576110ee613f5b565b5b60200260200101819052506001856111079190613f05565b945050505b808061111790613f8a565b915050610f4f565b508094505050505090565b600080611136836124c3565b9050600073ffffffffffffffffffffffffffffffffffffffff168173ffffffffffffffffffffffffffffffffffffffff1614156111a8576040517f08c379a000000000000000000000000000000000000000000000000000000000815260040161119f906140b1565b60405180910390fd5b80915050919050565b60008073ffffffffffffffffffffffffffffffffffffffff168273ffffffffffffffffffffffffffffffffffffffff161415611222576040517f08c379a000000000000000000000000000000000000000000000000000000000815260040161121990614143565b60405180910390fd5b600360008373ffffffffffffffffffffffffffffffffffffffff1673ffffffffffffffffffffffffffffffffffffffff168152602001908152602001600020549050919050565b60006112756007612500565b60006112816007612126565b905061128d3382612516565b6112978185612734565b6112a181846127df565b8091505092915050565b6060600d805480602002602001604051908101604052809291908181526020016000905b8282101561151757838290600052602060002090600502016040518060a001604052908160008201805461130290613d4c565b80601f016020809104026020016040519081016040528092919081815260200182805461132e90613d4c565b801561137b5780601f106113505761010080835404028352916020019161137b565b820191906000526020600020905b81548152906001019060200180831161135e57829003601f168201915b5050505050815260200160018201805461139490613d4c565b80601f01602080910402602001604051908101604052809291908181526020018280546113c090613d4c565b801561140d5780601f106113e25761010080835404028352916020019161140d565b820191906000526020600020905b8154815290600101906020018083116113f057829003601f168201915b5050505050815260200160028201805461142690613d4c565b80601f016020809104026020016040519081016040528092919081815260200182805461145290613d4c565b801561149f5780601f106114745761010080835404028352916020019161149f565b820191906000526020600020905b81548152906001019060200180831161148257829003601f168201915b50505050508152602001600382015481526020016004820160009054906101000a900473ffffffffffffffffffffffffffffffffffffffff1673ffffffffffffffffffffffffffffffffffffffff1673ffffffffffffffffffffffffffffffffffffffff1681525050815260200190600101906112cf565b50505050905090565b60606001805461152f90613d4c565b80601f016020809104026020016040519081016040528092919081815260200182805461155b90613d4c565b80156115a85780601f1061157d576101008083540402835291602001916115a8565b820191906000526020600020905b81548152906001019060200180831161158b57829003601f168201915b5050505050905090565b600e60009054906101000a900473ffffffffffffffffffffffffffffffffffffffff1681565b6115ea6115e3612065565b83836129e2565b5050565b3373ffffffffffffffffffffffffffffffffffffffff16600b60009054906101000a900473ffffffffffffffffffffffffffffffffffffffff1673ffffffffffffffffffffffffffffffffffffffff161461167e576040517f08c379a0000000000000000000000000000000000000000000000000000000008152600401611675906141d5565b60405180910390fd5b80600a819055507f661c8d2e494b21e778d6b19ffb42ca00ee63062be7f9eb28af0850e01a9cf214600a546040516116b6919061364f565b60405180910390a150565b6116d26116cc612065565b83612134565b611711576040517f08c379a000000000000000000000000000000000000000000000000000000000815260040161170890614045565b60405180910390fd5b61171d84848484612b4f565b50505050565b6000600c60008381526020019081526020016000206003015490506000600c600084815260200190815260200160002060010160009054906101000a900473ffffffffffffffffffffffffffffffffffffffff1690508134146117bb576040517f08c379a00000000000000000000000000000000000000000000000000000000081526004016117b290614267565b60405180910390fd5b33600c600085815260200190815260200160002060020160006101000a81548173ffffffffffffffffffffffffffffffffffffffff021916908373ffffffffffffffffffffffffffffffffffffffff1602179055506001600c600085815260200190815260200160002060040160006101000a81548160ff0219169083151502179055506000600c600085815260200190815260200160002060010160006101000a81548173ffffffffffffffffffffffffffffffffffffffff021916908373ffffffffffffffffffffffffffffffffffffffff16021790555061189f6008612500565b6118aa3033856121c9565b600b60009054906101000a900473ffffffffffffffffffffffffffffffffffffffff1673ffffffffffffffffffffffffffffffffffffffff166108fc600a549081150290604051600060405180830381858888f19350505050158015611914573d6000803e3d6000fd5b508073ffffffffffffffffffffffffffffffffffffffff166108fc349081150290604051600060405180830381858888f1935050505015801561195b573d6000803e3d6000fd5b50827f92702ca16506c19534081722898e3d74348202feb9cec071d74fc908c67dd03e33838560405161199093929190614287565b60405180910390a2505050565b60606119a88261201a565b60006006600084815260200190815260200160002080546119c890613d4c565b80601f01602080910402602001604051908101604052809291908181526020018280546119f490613d4c565b8015611a415780601f10611a1657610100808354040283529160200191611a41565b820191906000526020600020905b815481529060010190602001808311611a2457829003601f168201915b505050505090506000611a52612bab565b9050600081511415611a68578192505050611aab565b600082511115611a9d578082604051602001611a859291906142fa565b60405160208183030381529060405292505050611aab565b611aa684612bc2565b925050505b919050565b3373ffffffffffffffffffffffffffffffffffffffff16600c600084815260200190815260200160002060020160009054906101000a900473ffffffffffffffffffffffffffffffffffffffff1673ffffffffffffffffffffffffffffffffffffffff1614611b54576040517f08c379a0000000000000000000000000000000000000000000000000000000008152600401611b4b90614390565b60405180910390fd5b600a543414611b98576040517f08c379a0000000000000000000000000000000000000000000000000000000008152600401611b8f90614422565b60405180910390fd5b6000600c600084815260200190815260200160002060040160006101000a81548160ff02191690831515021790555080600c60008481526020019081526020016000206003018190555033600c600084815260200190815260200160002060010160006101000a81548173ffffffffffffffffffffffffffffffffffffffff021916908373ffffffffffffffffffffffffffffffffffffffff16021790555030600c600084815260200190815260200160002060020160006101000a81548173ffffffffffffffffffffffffffffffffffffffff021916908373ffffffffffffffffffffffffffffffffffffffff160217905550611c966008612c2a565b611ca13330846121c9565b817fc6b0d13d6c1af02bfe5761531c93b25f6078fbae63c013f2afb85a0a42ffc1f3333084604051611cd593929190614287565b60405180910390a25050565b60003411611d24576040517f08c379a0000000000000000000000000000000000000000000000000000000008152600401611d1b906144b4565b60405180910390fd5b600e60009054906101000a900473ffffffffffffffffffffffffffffffffffffffff1673ffffffffffffffffffffffffffffffffffffffff166108fc349081150290604051600060405180830381858888f19350505050158015611d8c573d6000803e3d6000fd5b50600d6040518060a001604052808581526020018481526020018381526020014281526020013373ffffffffffffffffffffffffffffffffffffffff1681525090806001815401808255809150506001900390600052602060002090600502016000909190919091506000820151816000019080519060200190611e11929190613170565b506020820151816001019080519060200190611e2e929190613170565b506040820151816002019080519060200190611e4b929190613170565b506060820151816003015560808201518160040160006101000a81548173ffffffffffffffffffffffffffffffffffffffff021916908373ffffffffffffffffffffffffffffffffffffffff1602179055505050505050565b6000600560008473ffffffffffffffffffffffffffffffffffffffff1673ffffffffffffffffffffffffffffffffffffffff16815260200190815260200160002060008373ffffffffffffffffffffffffffffffffffffffff1673ffffffffffffffffffffffffffffffffffffffff16815260200190815260200160002060009054906101000a900460ff16905092915050565b60007f80ac58cd000000000000000000000000000000000000000000000000000000007bffffffffffffffffffffffffffffffffffffffffffffffffffffffff1916827bffffffffffffffffffffffffffffffffffffffffffffffffffffffff1916148061200357507f5b5e139f000000000000000000000000000000000000000000000000000000007bffffffffffffffffffffffffffffffffffffffffffffffffffffffff1916827bffffffffffffffffffffffffffffffffffffffffffffffffffffffff1916145b80612013575061201282612c86565b5b9050919050565b61202381612cf0565b612062576040517f08c379a0000000000000000000000000000000000000000000000000000000008152600401612059906140b1565b60405180910390fd5b50565b600033905090565b816004600083815260200190815260200160002060006101000a81548173ffffffffffffffffffffffffffffffffffffffff021916908373ffffffffffffffffffffffffffffffffffffffff160217905550808273ffffffffffffffffffffffffffffffffffffffff166120e08361112a565b73ffffffffffffffffffffffffffffffffffffffff167f8c5be1e5ebec7d5bd14f71427d1e84f3dd0314c0f7b2291e5b200ac8c7c3b92560405160405180910390a45050565b600081600001549050919050565b6000806121408361112a565b90508073ffffffffffffffffffffffffffffffffffffffff168473ffffffffffffffffffffffffffffffffffffffff16148061218257506121818185611ea4565b5b806121c057508373ffffffffffffffffffffffffffffffffffffffff166121a8846106bc565b73ffffffffffffffffffffffffffffffffffffffff16145b91505092915050565b8273ffffffffffffffffffffffffffffffffffffffff166121e98261112a565b73ffffffffffffffffffffffffffffffffffffffff161461223f576040517f08c379a000000000000000000000000000000000000000000000000000000000815260040161223690614546565b60405180910390fd5b600073ffffffffffffffffffffffffffffffffffffffff168273ffffffffffffffffffffffffffffffffffffffff1614156122af576040517f08c379a00000000000000000000000000000000000000000000000000000000081526004016122a6906145d8565b60405180910390fd5b6122bc8383836001612d31565b8273ffffffffffffffffffffffffffffffffffffffff166122dc8261112a565b73ffffffffffffffffffffffffffffffffffffffff1614612332576040517f08c379a000000000000000000000000000000000000000000000000000000000815260040161232990614546565b60405180910390fd5b6004600082815260200190815260200160002060006101000a81549073ffffffffffffffffffffffffffffffffffffffff02191690556001600360008573ffffffffffffffffffffffffffffffffffffffff1673ffffffffffffffffffffffffffffffffffffffff168152602001908152602001600020600082825403925050819055506001600360008473ffffffffffffffffffffffffffffffffffffffff1673ffffffffffffffffffffffffffffffffffffffff16815260200190815260200160002060008282540192505081905550816002600083815260200190815260200160002060006101000a81548173ffffffffffffffffffffffffffffffffffffffff021916908373ffffffffffffffffffffffffffffffffffffffff160217905550808273ffffffffffffffffffffffffffffffffffffffff168473ffffffffffffffffffffffffffffffffffffffff167fddf252ad1be2c89b69c2b068fc378daa952ba7f163c4a11628f55a4df523b3ef60405160405180910390a46124be8383836001612d37565b505050565b60006002600083815260200190815260200160002060009054906101000a900473ffffffffffffffffffffffffffffffffffffffff169050919050565b6001816000016000828254019250508190555050565b600073ffffffffffffffffffffffffffffffffffffffff168273ffffffffffffffffffffffffffffffffffffffff161415612586576040517f08c379a000000000000000000000000000000000000000000000000000000000815260040161257d90614644565b60405180910390fd5b61258f81612cf0565b156125cf576040517f08c379a00000000000000000000000000000000000000000000000000000000081526004016125c6906146b0565b60405180910390fd5b6125dd600083836001612d31565b6125e681612cf0565b15612626576040517f08c379a000000000000000000000000000000000000000000000000000000000815260040161261d906146b0565b60405180910390fd5b6001600360008473ffffffffffffffffffffffffffffffffffffffff1673ffffffffffffffffffffffffffffffffffffffff16815260200190815260200160002060008282540192505081905550816002600083815260200190815260200160002060006101000a81548173ffffffffffffffffffffffffffffffffffffffff021916908373ffffffffffffffffffffffffffffffffffffffff160217905550808273ffffffffffffffffffffffffffffffffffffffff16600073ffffffffffffffffffffffffffffffffffffffff167fddf252ad1be2c89b69c2b068fc378daa952ba7f163c4a11628f55a4df523b3ef60405160405180910390a4612730600083836001612d37565b5050565b61273d82612cf0565b61277c576040517f08c379a000000000000000000000000000000000000000000000000000000000815260040161277390614742565b60405180910390fd5b806006600084815260200190815260200160002090805190602001906127a3929190613170565b507ff8e1a15aba9398e019f0b49df1a4fde98ee17ae345cb5f6b5e2c27f5033e8ce7826040516127d3919061364f565b60405180910390a15050565b60008111612822576040517f08c379a0000000000000000000000000000000000000000000000000000000008152600401612819906147ae565b60405180910390fd5b600a543414612866576040517f08c379a000000000000000000000000000000000000000000000000000000000815260040161285d90614422565b60405180910390fd5b6040518060a001604052808381526020013373ffffffffffffffffffffffffffffffffffffffff1681526020013073ffffffffffffffffffffffffffffffffffffffff16815260200182815260200160001515815250600c60008481526020019081526020016000206000820151816000015560208201518160010160006101000a81548173ffffffffffffffffffffffffffffffffffffffff021916908373ffffffffffffffffffffffffffffffffffffffff16021790555060408201518160020160006101000a81548173ffffffffffffffffffffffffffffffffffffffff021916908373ffffffffffffffffffffffffffffffffffffffff1602179055506060820151816003015560808201518160040160006101000a81548160ff02191690831515021790555090505061299f3330846121c9565b817fb640004f1d14576d0c209e240cad0410e0d8c0c33a09375861fbadae2588a98d33308460006040516129d694939291906147ce565b60405180910390a25050565b8173ffffffffffffffffffffffffffffffffffffffff168373ffffffffffffffffffffffffffffffffffffffff161415612a51576040517f08c379a0000000000000000000000000000000000000000000000000000000008152600401612a489061485f565b60405180910390fd5b80600560008573ffffffffffffffffffffffffffffffffffffffff1673ffffffffffffffffffffffffffffffffffffffff16815260200190815260200160002060008473ffffffffffffffffffffffffffffffffffffffff1673ffffffffffffffffffffffffffffffffffffffff16815260200190815260200160002060006101000a81548160ff0219169083151502179055508173ffffffffffffffffffffffffffffffffffffffff168373ffffffffffffffffffffffffffffffffffffffff167f17307eab39ab6107e8899845ad3d59bd9653f200f220920489ca2b5937696c3183604051612b4291906132c7565b60405180910390a3505050565b612b5a8484846121c9565b612b6684848484612d3d565b612ba5576040517f08c379a0000000000000000000000000000000000000000000000000000000008152600401612b9c906148f1565b60405180910390fd5b50505050565b606060405180602001604052806000815250905090565b6060612bcd8261201a565b6000612bd7612bab565b90506000815111612bf75760405180602001604052806000815250612c22565b80612c0184612ec5565b604051602001612c129291906142fa565b6040516020818303038152906040525b915050919050565b60008160000154905060008111612c76576040517f08c379a0000000000000000000000000000000000000000000000000000000008152600401612c6d9061495d565b60405180910390fd5b6001810382600001819055505050565b60007f01ffc9a7000000000000000000000000000000000000000000000000000000007bffffffffffffffffffffffffffffffffffffffffffffffffffffffff1916827bffffffffffffffffffffffffffffffffffffffffffffffffffffffff1916149050919050565b60008073ffffffffffffffffffffffffffffffffffffffff16612d12836124c3565b73ffffffffffffffffffffffffffffffffffffffff1614159050919050565b50505050565b50505050565b6000612d5e8473ffffffffffffffffffffffffffffffffffffffff16612f9d565b15612eb8578373ffffffffffffffffffffffffffffffffffffffff1663150b7a02612d87612065565b8786866040518563ffffffff1660e01b8152600401612da994939291906149d2565b6020604051808303816000875af1925050508015612de557506040513d601f19601f82011682018060405250810190612de29190614a33565b60015b612e68573d8060008114612e15576040519150601f19603f3d011682016040523d82523d6000602084013e612e1a565b606091505b50600081511415612e60576040517f08c379a0000000000000000000000000000000000000000000000000000000008152600401612e57906148f1565b60405180910390fd5b805181602001fd5b63150b7a0260e01b7bffffffffffffffffffffffffffffffffffffffffffffffffffffffff1916817bffffffffffffffffffffffffffffffffffffffffffffffffffffffff191614915050612ebd565b600190505b949350505050565b606060006001612ed484612fc0565b01905060008167ffffffffffffffff811115612ef357612ef26136f4565b5b6040519080825280601f01601f191660200182016040528015612f255781602001600182028036833780820191505090505b509050600082602001820190505b600115612f92578080600190039150507f3031323334353637383961626364656600000000000000000000000000000000600a86061a8153600a8581612f7c57612f7b614a60565b5b0494506000851415612f8d57612f92565b612f33565b819350505050919050565b6000808273ffffffffffffffffffffffffffffffffffffffff163b119050919050565b600080600090507a184f03e93ff9f4daa797ed6e38ed64bf6a1f010000000000000000831061301e577a184f03e93ff9f4daa797ed6e38ed64bf6a1f010000000000000000838161301457613013614a60565b5b0492506040810190505b6d04ee2d6d415b85acef8100000000831061305b576d04ee2d6d415b85acef8100000000838161305157613050614a60565b5b0492506020810190505b662386f26fc10000831061308a57662386f26fc1000083816130805761307f614a60565b5b0492506010810190505b6305f5e10083106130b3576305f5e10083816130a9576130a8614a60565b5b0492506008810190505b61271083106130d85761271083816130ce576130cd614a60565b5b0492506004810190505b606483106130fb57606483816130f1576130f0614a60565b5b0492506002810190505b600a831061310a576001810190505b80915050919050565b6040518060a0016040528060008152602001600073ffffffffffffffffffffffffffffffffffffffff168152602001600073ffffffffffffffffffffffffffffffffffffffff168152602001600081526020016000151581525090565b82805461317c90613d4c565b90600052602060002090601f01602090048101928261319e57600085556131e5565b82601f106131b757805160ff19168380011785556131e5565b828001600101855582156131e5579182015b828111156131e45782518255916020019190600101906131c9565b5b5090506131f291906131f6565b5090565b5b8082111561320f5760008160009055506001016131f7565b5090565b6000604051905090565b600080fd5b600080fd5b60007fffffffff0000000000000000000000000000000000000000000000000000000082169050919050565b61325c81613227565b811461326757600080fd5b50565b60008135905061327981613253565b92915050565b6000602082840312156132955761329461321d565b5b60006132a38482850161326a565b91505092915050565b60008115159050919050565b6132c1816132ac565b82525050565b60006020820190506132dc60008301846132b8565b92915050565b600081519050919050565b600082825260208201905092915050565b60005b8381101561331c578082015181840152602081019050613301565b8381111561332b576000848401525b50505050565b6000601f19601f8301169050919050565b600061334d826132e2565b61335781856132ed565b93506133678185602086016132fe565b61337081613331565b840191505092915050565b600060208201905081810360008301526133958184613342565b905092915050565b6000819050919050565b6133b08161339d565b81146133bb57600080fd5b50565b6000813590506133cd816133a7565b92915050565b6000602082840312156133e9576133e861321d565b5b60006133f7848285016133be565b91505092915050565b600073ffffffffffffffffffffffffffffffffffffffff82169050919050565b600061342b82613400565b9050919050565b61343b81613420565b82525050565b60006020820190506134566000830184613432565b92915050565b61346581613420565b811461347057600080fd5b50565b6000813590506134828161345c565b92915050565b6000806040838503121561349f5761349e61321d565b5b60006134ad85828601613473565b92505060206134be858286016133be565b9150509250929050565b600081519050919050565b600082825260208201905092915050565b6000819050602082019050919050565b6134fd8161339d565b82525050565b600061350e82613400565b9050919050565b61351e81613503565b82525050565b61352d816132ac565b82525050565b60a08201600082015161354960008501826134f4565b50602082015161355c6020850182613515565b50604082015161356f6040850182613515565b50606082015161358260608501826134f4565b5060808201516135956080850182613524565b50505050565b60006135a78383613533565b60a08301905092915050565b6000602082019050919050565b60006135cb826134c8565b6135d581856134d3565b93506135e0836134e4565b8060005b838110156136115781516135f8888261359b565b9750613603836135b3565b9250506001810190506135e4565b5085935050505092915050565b6000602082019050818103600083015261363881846135c0565b905092915050565b6136498161339d565b82525050565b60006020820190506136646000830184613640565b92915050565b6000806000606084860312156136835761368261321d565b5b600061369186828701613473565b93505060206136a286828701613473565b92505060406136b3868287016133be565b9150509250925092565b6000602082840312156136d3576136d261321d565b5b60006136e184828501613473565b91505092915050565b600080fd5b600080fd5b7f4e487b7100000000000000000000000000000000000000000000000000000000600052604160045260246000fd5b61372c82613331565b810181811067ffffffffffffffff8211171561374b5761374a6136f4565b5b80604052505050565b600061375e613213565b905061376a8282613723565b919050565b600067ffffffffffffffff82111561378a576137896136f4565b5b61379382613331565b9050602081019050919050565b82818337600083830152505050565b60006137c26137bd8461376f565b613754565b9050828152602081018484840111156137de576137dd6136ef565b5b6137e98482856137a0565b509392505050565b600082601f830112613806576138056136ea565b5b81356138168482602086016137af565b91505092915050565b600080604083850312156138365761383561321d565b5b600083013567ffffffffffffffff81111561385457613853613222565b5b613860858286016137f1565b9250506020613871858286016133be565b9150509250929050565b600081519050919050565b600082825260208201905092915050565b6000819050602082019050919050565b600082825260208201905092915050565b60006138c3826132e2565b6138cd81856138a7565b93506138dd8185602086016132fe565b6138e681613331565b840191505092915050565b6138fa81613420565b82525050565b600060a083016000830151848203600086015261391d82826138b8565b9150506020830151848203602086015261393782826138b8565b9150506040830151848203604086015261395182826138b8565b915050606083015161396660608601826134f4565b50608083015161397960808601826138f1565b508091505092915050565b60006139908383613900565b905092915050565b6000602082019050919050565b60006139b08261387b565b6139ba8185613886565b9350836020820285016139cc85613897565b8060005b85811015613a0857848403895281516139e98582613984565b94506139f483613998565b925060208a019950506001810190506139d0565b50829750879550505050505092915050565b60006020820190508181036000830152613a3481846139a5565b905092915050565b613a4581613503565b82525050565b6000602082019050613a606000830184613a3c565b92915050565b613a6f816132ac565b8114613a7a57600080fd5b50565b600081359050613a8c81613a66565b92915050565b60008060408385031215613aa957613aa861321d565b5b6000613ab785828601613473565b9250506020613ac885828601613a7d565b9150509250929050565b600067ffffffffffffffff821115613aed57613aec6136f4565b5b613af682613331565b9050602081019050919050565b6000613b16613b1184613ad2565b613754565b905082815260208101848484011115613b3257613b316136ef565b5b613b3d8482856137a0565b509392505050565b600082601f830112613b5a57613b596136ea565b5b8135613b6a848260208601613b03565b91505092915050565b60008060008060808587031215613b8d57613b8c61321d565b5b6000613b9b87828801613473565b9450506020613bac87828801613473565b9350506040613bbd878288016133be565b925050606085013567ffffffffffffffff811115613bde57613bdd613222565b5b613bea87828801613b45565b91505092959194509250565b60008060408385031215613c0d57613c0c61321d565b5b6000613c1b858286016133be565b9250506020613c2c858286016133be565b9150509250929050565b600080600060608486031215613c4f57613c4e61321d565b5b600084013567ffffffffffffffff811115613c6d57613c6c613222565b5b613c79868287016137f1565b935050602084013567ffffffffffffffff811115613c9a57613c99613222565b5b613ca6868287016137f1565b925050604084013567ffffffffffffffff811115613cc757613cc6613222565b5b613cd3868287016137f1565b9150509250925092565b60008060408385031215613cf457613cf361321d565b5b6000613d0285828601613473565b9250506020613d1385828601613473565b9150509250929050565b7f4e487b7100000000000000000000000000000000000000000000000000000000600052602260045260246000fd5b60006002820490506001821680613d6457607f821691505b60208210811415613d7857613d77613d1d565b5b50919050565b7f4552433732313a20617070726f76616c20746f2063757272656e74206f776e6560008201527f7200000000000000000000000000000000000000000000000000000000000000602082015250565b6000613dda6021836132ed565b9150613de582613d7e565b604082019050919050565b60006020820190508181036000830152613e0981613dcd565b9050919050565b7f4552433732313a20617070726f76652063616c6c6572206973206e6f7420746f60008201527f6b656e206f776e6572206f7220617070726f76656420666f7220616c6c000000602082015250565b6000613e6c603d836132ed565b9150613e7782613e10565b604082019050919050565b60006020820190508181036000830152613e9b81613e5f565b9050919050565b7f4e487b7100000000000000000000000000000000000000000000000000000000600052601160045260246000fd5b6000613edc8261339d565b9150613ee78361339d565b925082821015613efa57613ef9613ea2565b5b828203905092915050565b6000613f108261339d565b9150613f1b8361339d565b9250827fffffffffffffffffffffffffffffffffffffffffffffffffffffffffffffffff03821115613f5057613f4f613ea2565b5b828201905092915050565b7f4e487b7100000000000000000000000000000000000000000000000000000000600052603260045260246000fd5b6000613f958261339d565b91507fffffffffffffffffffffffffffffffffffffffffffffffffffffffffffffffff821415613fc857613fc7613ea2565b5b600182019050919050565b7f4552433732313a2063616c6c6572206973206e6f7420746f6b656e206f776e6560008201527f72206f7220617070726f76656400000000000000000000000000000000000000602082015250565b600061402f602d836132ed565b915061403a82613fd3565b604082019050919050565b6000602082019050818103600083015261405e81614022565b9050919050565b7f4552433732313a20696e76616c696420746f6b656e2049440000000000000000600082015250565b600061409b6018836132ed565b91506140a682614065565b602082019050919050565b600060208201905081810360008301526140ca8161408e565b9050919050565b7f4552433732313a2061646472657373207a65726f206973206e6f74206120766160008201527f6c6964206f776e65720000000000000000000000000000000000000000000000602082015250565b600061412d6029836132ed565b9150614138826140d1565b604082019050919050565b6000602082019050818103600083015261415c81614120565b9050919050565b7f4f6e6c79206d61726b6574706c616365206f776e65722063616e20757064617460008201527f65206c697374696e672070726963652e00000000000000000000000000000000602082015250565b60006141bf6030836132ed565b91506141ca82614163565b604082019050919050565b600060208201905081810360008301526141ee816141b2565b9050919050565b7f506c65617365207375626d6974207468652061736b696e67207072696365206960008201527f6e206f7264657220746f20636f6d706c65746520746865207075726368617365602082015250565b60006142516040836132ed565b915061425c826141f5565b604082019050919050565b6000602082019050818103600083015261428081614244565b9050919050565b600060608201905061429c6000830186613432565b6142a96020830185613432565b6142b66040830184613640565b949350505050565b600081905092915050565b60006142d4826132e2565b6142de81856142be565b93506142ee8185602086016132fe565b80840191505092915050565b600061430682856142c9565b915061431282846142c9565b91508190509392505050565b7f4f6e6c79206974656d206f776e65722063616e20706572666f726d207468697360008201527f206f7065726174696f6e00000000000000000000000000000000000000000000602082015250565b600061437a602a836132ed565b91506143858261431e565b604082019050919050565b600060208201905081810360008301526143a98161436d565b9050919050565b7f5072696365206d75737420626520657175616c20746f206c697374696e67207060008201527f7269636500000000000000000000000000000000000000000000000000000000602082015250565b600061440c6024836132ed565b9150614417826143b0565b604082019050919050565b6000602082019050818103600083015261443b816143ff565b9050919050565b7f506c656173652070617920736f6d657468696e6720677265617465722074686160008201527f6e20300000000000000000000000000000000000000000000000000000000000602082015250565b600061449e6023836132ed565b91506144a982614442565b604082019050919050565b600060208201905081810360008301526144cd81614491565b9050919050565b7f4552433732313a207472616e736665722066726f6d20696e636f72726563742060008201527f6f776e6572000000000000000000000000000000000000000000000000000000602082015250565b60006145306025836132ed565b915061453b826144d4565b604082019050919050565b6000602082019050818103600083015261455f81614523565b9050919050565b7f4552433732313a207472616e7366657220746f20746865207a65726f2061646460008201527f7265737300000000000000000000000000000000000000000000000000000000602082015250565b60006145c26024836132ed565b91506145cd82614566565b604082019050919050565b600060208201905081810360008301526145f1816145b5565b9050919050565b7f4552433732313a206d696e7420746f20746865207a65726f2061646472657373600082015250565b600061462e6020836132ed565b9150614639826145f8565b602082019050919050565b6000602082019050818103600083015261465d81614621565b9050919050565b7f4552433732313a20746f6b656e20616c7265616479206d696e74656400000000600082015250565b600061469a601c836132ed565b91506146a582614664565b602082019050919050565b600060208201905081810360008301526146c98161468d565b9050919050565b7f45524337323155524953746f726167653a2055524920736574206f66206e6f6e60008201527f6578697374656e7420746f6b656e000000000000000000000000000000000000602082015250565b600061472c602e836132ed565b9150614737826146d0565b604082019050919050565b6000602082019050818103600083015261475b8161471f565b9050919050565b7f5072696365206d757374206265206174206c6561737420312077656900000000600082015250565b6000614798601c836132ed565b91506147a382614762565b602082019050919050565b600060208201905081810360008301526147c78161478b565b9050919050565b60006080820190506147e36000830187613432565b6147f06020830186613432565b6147fd6040830185613640565b61480a60608301846132b8565b95945050505050565b7f4552433732313a20617070726f766520746f2063616c6c657200000000000000600082015250565b60006148496019836132ed565b915061485482614813565b602082019050919050565b600060208201905081810360008301526148788161483c565b9050919050565b7f4552433732313a207472616e7366657220746f206e6f6e20455243373231526560008201527f63656976657220696d706c656d656e7465720000000000000000000000000000602082015250565b60006148db6032836132ed565b91506148e68261487f565b604082019050919050565b6000602082019050818103600083015261490a816148ce565b9050919050565b7f436f756e7465723a2064656372656d656e74206f766572666c6f770000000000600082015250565b6000614947601b836132ed565b915061495282614911565b602082019050919050565b600060208201905081810360008301526149768161493a565b9050919050565b600081519050919050565b600082825260208201905092915050565b60006149a48261497d565b6149ae8185614988565b93506149be8185602086016132fe565b6149c781613331565b840191505092915050565b60006080820190506149e76000830187613432565b6149f46020830186613432565b614a016040830185613640565b8181036060830152614a138184614999565b905095945050505050565b600081519050614a2d81613253565b92915050565b600060208284031215614a4957614a4861321d565b5b6000614a5784828501614a1e565b91505092915050565b7f4e487b7100000000000000000000000000000000000000000000000000000000600052601260045260246000fdfea2646970667358221220e541ca5617d6d3b4a0f6febef9f3d15e0031558539b3e4e960a71b8487448fb164736f6c634300080a0033",
  "linkReferences": {},
  "deployedLinkReferences": {}
}